:020000040800F2
:100000008864002045010008A1290008A3290008F0
:10001000B5290008B9290008BD2900080000000022
:10002000000000000000000000000000C1290008DE
:10003000C329000800000000C5290008C7290008DE
:100040005F010008C92900085F0100085F0100087E
:100050005F0100085F0100085F0100085F01000800
:100060005F0100085F0100085F0100085F010008F0
:100070005F0100085F0100085F0100085F010008E0
:100080005F0100085F0100085F0100085F010008D0
:100090005F0100085F0100085F010008E5930008A8
:1000A0005F0100085F0100085F0100085F010008B0
:1000B000E5290008FF2900085F0100085F0100082A
:1000C0005F0100085F0100085F0100085F01000890
:1000D0005F0100084F2B00086F2B00085F0100082C
:1000E0005F0100085F0100085F0100085F01000870
:1000F0005F0100085F0100085F0100085F01000860
:100100005F0100085F0100085F0100085F0100084F
:10011000052C0008312C00085F0100085F01000871
:100120005F0100085F0100085F0100085F0100082F
:10013000DFF80CD00BF0CEFD004800475128000836
:10014000886400200648804706480047FEE7FEE72F
:10015000FEE7FEE7FEE7FEE7FEE7FEE7FEE7FEE777
:100160006B01000831010008704710B5364800687F
:1001700040F00100344908600846406833490840AF
:100180003149486008460068314908402E490860F6
:100190000846006820F4802008600846406820F483
:1001A000FE0048604FF41F008860FFF7DDFF4FF04E
:1001B00000602849086010BD10B500210020002211
:1001C000214B5B6803F00C0121B1042906D00829FA
:1001D00028D107E0204B214C236027E01E4B1F4C09
:1001E000236023E0184B5B6803F47010164B5B68C8
:1001F00003F48032022303EB904022B9184B4343AF
:10020000164C23600DE0104B5B6803F4003323B100
:10021000134B4343114C236003E00F4B43430F4CFC
:10022000236003E00C4B0D4C236000BF00BF064B66
:100230005B68C3F303130B4CE15C084B1B68CB40BA
:10024000064C236010BD0000001002400000FFF8C3
:10025000FFFFF6FE08ED00E000127A00000000202B
:1002600000093D000400002031490143314A11607A
:10027000704770B5002100230F22C47804B32D4CC1
:10028000246804F4E064C4F5E064210AC1F10403C5
:10029000CA40447804FA03F18478144021430901E8
:1002A000254C0678A155047804F01F050124AC40C4
:1002B00005786D11AD0005F1E025C5F8004109E0B4
:1002C000047804F01F050124AC401C4D067876111B
:1002D00045F8264070BD1A4A0A400243154B1B1FC1
:1002E0001A60704739B1134A121D12680243114B4C
:1002F0001B1D1A6006E00F4A121D126882430D4B47
:100300001B1D1A607047042808D14FF0E0210969CD
:1003100041F004014FF0E022116107E04FF0E021CD
:10032000096921F004014FF0E022116170470000DB
:100330000000FA050CED00E000E400E080E100E0E0
:1003400080FFFF1F002044490860091D0860091D47
:100350000860091D086041483F4914310860704732
:1003600000213D498279002A3AD00A461268036882
:100370009A430B461A600A1D126803689A430B1DC4
:100380001A60027911440A6803681A430A60324A03
:100390000832126803689A432F4B08331A601A1DFB
:1003A000126803689A432C4B0C331A604279102A66
:1003B0000ED11A1F126803681A43274B08331A60BC
:1003C0001A1D126803681A43234B0C331A600DE0A0
:1003D0002149427911440A6803681A430A6005E01A
:1003E000027911440A6803689A430A607047002141
:1003F000016001710C214171002181717047164922
:10040000103109680143144A1032116070470146E7
:100410000020114A143212680A400AB1012000E09B
:10042000002070470C4914310860704701460020D5
:100430000022094B1B6803EA0102074B14331B68B7
:100440000B4013B10AB1012000E0002070470249BF
:10045000143108607047000000040140FFFF0F00E6
:1004600001460020FE4A106800F038000843106082
:100470007047FB49096821F00801F94A11601146EB
:100480000968014311607047F549096821F01001BE
:10049000F34A116011460968014311607047F14841
:1004A000EF494860F04848607047EE48EC494860C2
:1004B000ED4848607047EA48006940F08000E8492C
:1004C00008617047E648006940F08000E44908612F
:1004D00070470420E249C96801F0010109B1012017
:1004E0000EE0DF49C96801F0040109B1022007E00C
:1004F000DB49C96801F0100109B1032000E00420C4
:10050000704700B502460423FFF7E3FF034603E00C
:10051000FFF7DFFF0346521E012B01D1002AF7D15E
:1005200002B90523184600BD30B5044604254FF432
:100530003020FFF7E6FF0546042D17D1C8480069B3
:1005400040F00200C649086108464461006940F075
:10055000400008614FF43020FFF7D3FF0546C04844
:10056000006941F6FD710840BD490861284630BD6B
:1005700010B504244FF43020FFF7C3FF0446042CC9
:1005800016D1B748006940F00400B5490861084633
:10059000006940F0400008614FF43020FFF7B1FFE0
:1005A0000446AF48006941F6FB710840AC49086158
:1005B000204610BD00B502460423FFF78AFF03461C
:1005C00003E0FFF786FF0346521E012B01D1002AEC
:1005D000F7D102B90523184600BD10B504244FF425
:1005E0003020FFF7E7FF0446042C16D19C48006931
:1005F00040F004009A4908610846006940F0400054
:1006000008614FF43020FFF7D5FF04469448006995
:1006100041F6FB71084092490861204610BD002058
:100620008F49C96901F0020109B1012000E00020F1
:10063000704730B5A5250424FFF7F1FF00B1002570
:100640004FF43020FFF75DFF0446042C3AD1854873
:1006500083498860844888600846006940F020002B
:1006600008610846006940F0400008614FF43020FE
:10067000FFF747FF0446042C1BD17948006941F677
:10068000DF710840764908610846006940F01000B3
:10069000086176480580E002FFF733FF0446052C29
:1006A00010D06F48006941F6EF7108406C4908614D
:1006B00008E0052C06D06A48006941F6EF71084051
:1006C00067490861204630BD78B506460C460425CA
:1006D00000200090E802FFF714FF0546042D24D106
:1006E0005F48006940F001005D4908613480E8021C
:1006F000FFF707FF0546042D10D1B01C0090200C19
:1007000000990880E802FFF7FCFE0546544800699E
:1007100041F6FE7108405249086106E05048006900
:1007200041F6FE7108404E490861284678BD70B513
:1007300004460D460426F002FFF7E3FE0646042EAB
:1007400011D14748006940F0010045490861258002
:10075000F002FFF7D6FE06464148006941F6FE71F9
:1007600008403F490861304670BD70B505460E46E9
:100770000424E002FFF7C5FE0446042C17D13948D3
:1007800037498860384888600846006940F01000A2
:1007900008612E80E002FFF7B4FE0446052C06D067
:1007A0002F48006941F6EF7108402D490861204645
:1007B00070BD2DE9F04304464FF6FF763746B0464C
:1007C000B1460425E443E6B2C4F30727C4F307485F
:1007D0004FEA1469E802FFF794FE0546042D49D15B
:1007E00020481F498860204888600846006940F01A
:1007F00010000861FF2E06D01C4808300680E80271
:10080000FFF77FFE0546042D08D1FF2F06D01748BD
:100810000A300780E802FFF774FE0546042D0AD16E
:10082000B8F1FF0F07D011480C30A0F80080E802A3
:10083000FFF767FE0546042D0AD1B9F1FF0F07D077
:100840000A480E30A0F80090E802FFF75AFE05466D
:10085000052D0FD00248006941F6EF71084007E00E
:100860000020024023016745AB89EFCD00F8FF1F50
:10087000664908612846BDE8F08330B50546042482
:100880004FF43020FFF73DFE0446042C41D1604870
:100890005E4988605F4888600846006940F0200033
:1008A00008610846006940F0400008614FF43020BC
:1008B000FFF727FE0446042C22D15448006941F674
:1008C000DF710840514908610846006940F0100096
:1008D00008611DB100205049088002E0A5204E4962
:1008E00008804FF43020FFF70CFE0446052C10D092
:1008F0004648006941F6EF7108404449086108E044
:10090000052C06D04148006941F6DF7108403F4997
:100910000861204630BDF0B505460E461746042452
:100920003B483A4988603B488860E002FFF7E9FDB0
:100930000446042C19D13548006940F010003349B1
:10094000086147F0F800304328433349891C088088
:10095000E002FFF7D6FD0446052C06D02B480069BF
:1009600041F6EF710840294908612046F0BD27484B
:10097000C069800870472548006A704700202349F5
:10098000096801F0200109B1012000E00020704752
:1009900029B11E4A126902431C4B1A6104E01B4A2A
:1009A00012698243194B1A617047014600200129E0
:1009B00008D1164AD26902F001020AB1012008E00A
:1009C000002006E0114AD2680A400AB1012000E086
:1009D000002070470D49C860704704200B49C96862
:1009E00001F0010109B101200EE00849C96801F0D8
:1009F000040109B1022007E00449C96801F01001AF
:100A000009B1032000E004207047000000200240EC
:100A100023016745AB89EFCD00F8FF1F10B50446F1
:100A2000CC48844208D10121042000F02DFB002194
:100A3000042000F029FB46E0C748844208D1012188
:100A4000082000F021FB0021082000F01DFB3AE007
:100A5000C248844208D10121102000F015FB00217A
:100A6000102000F011FB2EE0BD48844208D1012186
:100A7000202000F009FB0021202000F005FB22E0EF
:100A8000B848844208D10121402000F0FDFA00213D
:100A9000402000F0F9FA16E0B348844208D1012161
:100AA000802000F0F1FA0021802000F0EDFA0AE049
:100AB000AE48844207D10121801500F0E5FA0021FB
:100AC000A01500F0E1FA10BD10B50121084600F0B4
:100AD000DBFA0021012000F0D7FA10BD2DE9F0412A
:100AE000024600250026002000230024002791F85C
:100AF00003C00CF00F0591F803C00CF0100CBCF112
:100B0000000F03D091F802C04CEA050591F800C02F
:100B1000BCF1000F31D0146800202BE04FF0010C25
:100B20000CFA00F3B1F800C00CEA03069E4220D193
:100B300083004FF00F0C0CFA03F7BC4305FA03FCDB
:100B40004CEA040491F803C0BCF1280F06D14FF021
:100B5000010C0CFA00FCC2F814C00AE091F803C0C2
:100B6000BCF1480F05D14FF0010C0CFA00FCC2F8A3
:100B700010C0401C0828D1D31460B1F800C0BCF1EB
:100B8000FF0F34DD546800202EE000F1080C4FF018
:100B9000010808FA0CF3B1F800C00CEA03069E4203
:100BA00021D183004FF00F0C0CFA03F7BC4305FA78
:100BB00003FC4CEA040491F803C0BCF1280F05D1F2
:100BC00000F1080C08FA0CF8C2F8148091F803C080
:100BD000BCF1480F07D100F1080C4FF0010808FAEA
:100BE0000CF8C2F81080401C0828CED35460BDE831
:100BF000F0814FF6FF710180022181700421C170E4
:100C000070470246002093680B400BB1012000E0C2
:100C1000002070470146886880B270470246002075
:100C2000D3680B400BB1012000E000207047014663
:100C3000C86880B2704701617047416170470AB16E
:100C4000016100E041617047C16070474FF480323C
:100C50000A438261816182618269826970470246CA
:100C60000020434B18684FF68073184040EA02108A
:100C700008433F4B186070473E49C8617047F0B564
:100C80000A46002300240021002500F00046B6F1AA
:100C9000004F02D1364EF16901E0354E7168C0F364
:100CA000034583B200F44016B6F5401F08D121F089
:100CB00070612F4E766826F070662D4F7E6012E0D0
:100CC00000F48016B6F5801F06D1032606FA05F457
:100CD000A14341F0706106E0460D360103FA06F6C5
:100CE000B14341F0706122B1460D360103FA06F6B8
:100CF000314300F00046B6F1004F02D11C4EF161C5
:100D000001E01B4E7160F0BD30B500228B071C0F57
:100D10000F2303FA04F2164B08338C1053F82430D7
:100D20009343134C08348D1044F8253023468C101F
:100D300053F824308C07240F00FA04F423430C4C9E
:100D400008348D1044F8253030BD0A49DC31086084
:100D50007047000000080140000C014000100140F5
:100D60000014014000180140001C01400020014017
:100D70000000014000002042DF48006840F0010010
:100D8000DD49086008464068DC490840DA494860A7
:100D900008460068DA490840D749086008460068F4
:100DA00020F4802008600846406820F4FE00486077
:100DB0004FF41F0088607047CF49096821F48031E3
:100DC000CD4A11601146096821F480211160B0F507
:100DD000803F03D0B0F5802F0ED106E0C6490968E8
:100DE00041F48031C44A116007E0C349096841F405
:100DF000A021C14A116000E000BF00BF704710B5DC
:100E000001460022002300204A11012A02D1BA4CD7
:100E1000236806E0022A02D1B74C236A01E0B64CEF
:100E2000636A01F01F02012494401C400CB10120B0
:100E300000E0002010BD38B50020009000240025FF
:100E400000BF3120FFF7DBFF05460098401C0090F3
:100E50000098B0F5A06F01D0002DF2D03120FFF73F
:100E6000CEFF08B1012400E00024204638BD014631
:100E70000020A14A106820F0F80040EAC10010608C
:100E80007047A04908607047024600209A4B586896
:100E900020F47C1042EA01031843974B58607047D6
:100EA00098490866704701460020934A506820F030
:100EB00003000843506070478F48406800F00C0002
:100EC0007047014600208C4A506820F0F00008432B
:100ED0005060704701460020874A506820F4E06067
:100EE00008435060704701460020834A506820F450
:100EF000605040EAC1005060704729B17E4A527A82
:100F000002437D4B5A7204E07B4A527A82437A4B09
:100F10005A7270477B49D8310860704701460020FB
:100F2000754A506820F440400843506070470021E3
:100F3000714A20321170704A82F82010012802D0C4
:100F400004280AD104E001216B4A2032117005E027
:100F50000521694A2032117000E000BF00BF7047D0
:100F60006949086070476449096A0143624A11622D
:100F70007047654944390860704730B50021002248
:100F8000002400235C4D6D6805F00C0121B104299B
:100F900005D0082923D105E05C4D056022E05B4DBA
:100FA00005601FE0544D6D6805F47012524D6D6878
:100FB00005F48034022505EB92421CB9544D55438B
:100FC00005600BE04C4D6D6805F400351DB1504DCA
:100FD0005543056002E04D4D5543056002E04B4D21
:100FE000056000BF00BF444D6D6805F0F0010909C0
:100FF000484D6B5C0568DD4045603F4D6D6805F40C
:10100000E061090A434D6B5C4568DD4085603A4DFF
:101010006D6805F46051C90A3E4D6B5C4568DD4062
:10102000C560354D6D6805F44041890B3A4D6B5CE8
:10103000C568B5FBF3F5056130BD29B12E4A52698B
:1010400002432D4B5A6104E02B4A526982432A4BDA
:101050005A61704729B1284A92690243264B9A6126
:1010600004E0254A92698243234B9A61704729B173
:10107000214AD2690243204BDA6104E01E4AD26958
:1010800082431D4BDA61704729B11B4AD268024383
:10109000194BDA6004E0184AD2688243164BDA60D2
:1010A000704729B1144A12690243134B1A6104E0D4
:1010B000114A12698243104B1A6170471249403934
:1010C000086070470F49C86470470B49C871704782
:1010D0000948406A40F080700749486270470146FD
:1010E0000020054A92680A400AB1012000E0002071
:1010F0007047014988727047001002400000FFF8F5
:10110000FFFFF6FE000042428004424200127A00D5
:1011100000093D00140000202400002010B5044602
:10112000BE48844208D101218014FFF7ADFF0021A1
:10113000A014FFF7A9FF16E0B948844208D10121A5
:101140000014FFF7AEFF00212014FFF7AAFF0AE00A
:10115000B448844207D10121C013FFF7A2FF002148
:10116000E013FFF79EFF10BD10B50022028802F4C5
:1011700041520B884C8823438C882343CC882343DB
:101180000C8923434C8923438C892343CC892343F3
:101190001A430280838B4FF2FF74234083830B8AB0
:1011A000038210BD2DE9F04F85B005460C464FF087
:1011B000000902274FF000084FF0010B0026B2464D
:1011C000A88B4FF240010840A88302202884B5F87C
:1011D0001C90A068022801D100BF38E0A08810B997
:1011E0004FF0010B01E04FF0020B8D48854200D11A
:1011F00000E000BF6846FFF7C0FEDDF800A0E08811
:10120000B0F5007F0AD14FEA1A2000EB80004000C1
:10121000A168B0FBF1F0401D86B20BE04FEA4B1025
:10122000BAFBF0F000EB80004000A168B0FBF1F0E9
:10123000401D86B20A20B6FBF0F606F00108A6EBC8
:101240000800C0F34F074FF6FF7000EA0828022F8E
:1012500001DBFF2F02DD02274FF00008E08840EAA3
:10126000080038432884A088A1890843618808437E
:101270002188084340F4006040EA0909A5F81C9061
:1012800005B0BDE8F08F0021018041808180C180E0
:10129000018141818181C181072101827047002143
:1012A000018041808180C180022181600021818193
:1012B000704721B1028842F04002028004E00288B7
:1012C0004FF6BF731A400280704721B1828B42F4FF
:1012D0008062828304E0828B4FF6FF331A40828360
:1012E000704730B5002400230C110125A540ABB296
:1012F0001AB185881D43858002E085889D438580DD
:1013000030BD1AB183880B43838002E083888B430E
:1013100083807047818170470146888970474FF606
:10132000FF62914204D0028842F48072028004E09D
:1013300002884FF6FF631A400280704721B182880D
:1013400042F00402828004E082884FF6FB731A4068
:101350008280704702884FF2FF731A400280028831
:101360000A4302807047018841F480510180704730
:1013700021B1028842F40052028004E002884DF656
:10138000FF731A400280704702460020012901D0F5
:10139000108B00E0908A70470146088A7047B1F5CB
:1013A000804F04D1028842F48042028004E0028827
:1013B0004BF6FF731A4002807047024600201389E3
:1013C0000B400BB1012000E000207047CA430281AE
:1013D0007047F0B50246002000240023002501F0EC
:1013E0000F070126BE40B4B20B1101269E40B3B2D6
:1013F000968806EA03051689264016B10DB101202C
:1014000000E00020F0BD10B5002201F00F04012320
:10141000A3409AB2D343038110BD000000300140C5
:1014200000380040003C004010B50446FE488442AD
:1014300008D10121C014FFF727FE0021E014FFF7B7
:1014400023FEC4E0B4F1804F08D101210846FFF724
:1014500028FE00210120FFF724FEB8E0F348844273
:1014600008D101210220FFF71CFE00210220FFF716
:1014700018FEACE0EE48844208D101210420FFF7B9
:1014800010FE00210420FFF70CFEA0E0E948844292
:1014900008D101210820FFF704FE00210820FFF7F2
:1014A00000FE94E0E448844208D101211020FFF7B7
:1014B000F8FD00211020FFF7F4FD88E0DF488442AA
:1014C00008D101212020FFF7ECFD00212020FFF7AB
:1014D000E8FD7CE0DA48844208D101214014FFF79E
:1014E000D3FD00216014FFF7CFFD70E0D5488442A2
:1014F00009D10121C804FFF7C7FD00214FF40020E6
:10150000FFF7C2FD63E0D048844209D101210805FC
:10151000FFF7BAFD00214FF48010FFF7B5FD56E04C
:10152000CA48844209D101214805FFF7ADFD0021D9
:101530004FF40010FFF7A8FD49E0C548844208D1E8
:1015400001214020FFF7ADFD00214020FFF7A9FD5C
:101550003DE0C048844208D101218020FFF7A1FD71
:1015600000218020FFF79DFD31E0BB48844208D177
:1015700001218015FFF795FD0021A015FFF791FDD2
:1015800025E0B648844209D101210804FFF77CFD1B
:1015900000214FF48030FFF777FD18E0B048844217
:1015A00009D101214804FFF76FFD00214FF40030FD
:1015B000FFF76AFD0BE0AB48844208D101218804A3
:1015C000FFF762FD00214FF48020FFF75DFD10BDA5
:1015D00000220288944B98420ED0994B98420BD02F
:1015E000B0F1804F08D0914B984205D0904B984273
:1015F00002D0904B984204D14FF68F731A404B881B
:101600001A438D4B984207D08C4B984204D04FF62A
:10161000FF431A40CB881A4302808B8883850B884E
:101620000385814B98420BD0854B984208D08B4B59
:10163000984205D08A4B984202D08A4B984201D1F9
:101640000B7A038601238382704770B50024002241
:101650000023058C4FF6FE7635400584028C838886
:10166000048B4FF68F752C40B51E2C400D882C43F3
:10167000751E2A400D892A434D882A436A4DA84287
:101680000BD06F4DA84208D0744DA84205D0744DC0
:10169000A84202D0734DA84213D14FF6F7752A40E5
:1016A0004D892A434FF6FB752A408D882A434FF611
:1016B000FF652B404FF6FF552B408D892B43CD897D
:1016C0002B4383800483CD888586028470BD70B5EA
:1016D000002400220023058C4FF6EF763540058468
:1016E000028C8388048B48F6FF752C404FF6FF452B
:1016F0002C400D884FF6FF7606EA05252C434FF661
:10170000DF752A400D8906EA05152A434D8806EA49
:1017100005152A43444DA84202D0494DA8421DD187
:101720004FF67F752A404D894FF6FF7606EA05157C
:101730002A434FF6BF752A408D8806EA05152A43CD
:101740004FF6FF352B404FF2FF752B408D8906EA8F
:1017500085052B43CD8906EA85052B4383800483C9
:10176000CD880587028470BD70B500240022002357
:10177000058C4FF6FF6635400584028C8388848B88
:101780004FF68F752C404FF6FC752C400D882C437E
:101790004FF6FF552A400D894FF6FF7606EA0525DC
:1017A0002A434D8806EA05252A431F4DA84202D048
:1017B000234DA8421DD14FF2FF752A404D894FF6A7
:1017C000FF7606EA05252A434FF6FF352A408D8825
:1017D00006EA05252A434EF6FF752B404DF6FF75A8
:1017E0002B408D8906EA05152B43CD8906EA0515A0
:1017F0002B4383808483CD888587028470BD70B538
:10180000002200230024058C4EF6FF763540058427
:10181000038C8488828B48F6FF752A404FF6FF457B
:101820002A400D8820E00000002C01400004004008
:1018300000080040000C0040001000400014004070
:1018400000340140004C0140005001400054014070
:1018500000180040001C00400020004000400140F3
:1018600000440140004801404FF6FF7606EA052596
:101870002A434DF6FF752B400D8906EA05352B43AB
:101880004D8806EA05352B43FA4DA84202D0FA4DA1
:10189000A84208D14BF6FF752C408D894FF6FF7694
:1018A00006EA85152C4384808283CD88A0F84050B9
:1018B000038470BD828B4FF2FF331A408283828B88
:1018C0004FF6FF7303EA01231A4382837047F0B592
:1018D0000C461546002200210026078C4EF6FF7CA0
:1018E00007EA0C070784828B018C4FF6FF7707EA23
:1018F000043640F6FF473A404FF6FF7707EA0527E0
:101900003A434FF6FF7707EA03373A43D94FB842D5
:101910000ED0D94FB8420BD0B0F1804F08D0D74F7E
:10192000B84205D0D64FB84202D0D64FB84206D101
:101930004DF6FF77394046F48057394305E047F6C6
:10194000FF57394044F48057394382830184F0BD06
:10195000828B4FF6F3731A408283828B0A43828311
:101960007047F0B50C461546002200210026078C72
:101970004FF6FF6C07EA0C070784828B018C4FF649
:10198000FF7707EA04264FF60C773A404FF6FF77C9
:1019900007EA03172F433A43B64FB8420ED0B64F6B
:1019A000B8420BD0B0F1804F08D0B44FB84205D048
:1019B000B34FB84202D0B34FB84206D14FF6FF57EB
:1019C000394046F48077394305E04FF2FF573940FC
:1019D00044F48077394382830184F0BD028B4FF257
:1019E000FF331A400283028B4FF6FF7303EA012391
:1019F0001A4302837047F0B50C46154600220021B9
:101A00000026078C4FF6EF7C07EA0C070784028B51
:101A1000018C4FF6FF7707EA041640F6FF473A407D
:101A20004FF6FF7707EA03373A434FF6FF7707EAA7
:101A300005273A438F4FB8420ED08F4FB8420BD094
:101A4000B0F1804F08D08D4FB84205D08C4FB842CE
:101A500002D08C4FB84206D14FF6DF77394046F0BE
:101A60001007394305E04FF65F77394044F010071F
:101A7000394302830184F0BD028B4FF6F3731A40A1
:101A80000283028B0A4302837047F0B50C46154669
:101A900000220021068C4FF6FE773E400684028B22
:101AA000018C4FF60C7632407E1C06EA03162E435C
:101AB0003243704EB0420ED06F4EB0420BD0B0F1F8
:101AC000804F08D06D4EB04205D06D4EB04202D06E
:101AD0006C4EB04206D14FF6FD76314044F001061F
:101AE000314305E04FF6F576314044F001063143CD
:101AF00002830184F0BD70B505460C465D48854201
:101B00000ED05D4885420BD0B5F1804F08D05B48C0
:101B1000854205D05A48854202D05A48854200D1B4
:101B200000E000BF208850B92389A2886188284638
:101B3000FFF7ABFFE1882846FFF79EFF25E02088EE
:101B400004280AD12389A28861882846FFF753FF19
:101B5000E1882846FFF742FF17E0208808280AD1CD
:101B60002389A28861882846FFF7FBFEE188284682
:101B7000FFF7EEFE09E02389A28861882846FFF777
:101B8000A6FEE1882846FFF795FE70BD2DE9F041DD
:101B900005460C4600260127608808B9022600E0A9
:101BA0000026A088012801D1022700E00127208813
:101BB000A0B92389A28861882846FFF766FFE188DB
:101BC0002846FFF759FF23893A4631462846FFF752
:101BD00012FFE1882846FFF701FF13E02389A2885E
:101BE00061882846FFF707FFE1882846FFF7F6FEE1
:101BF00023893A4631462846FFF747FFE1882846C1
:101C0000FFF73AFFBDE8F0810A884B881A438B88BA
:101C10001A43CB881A430B891A434B891A438B8981
:101C20001A43A0F8442070474FF6FF7181800021CD
:101C30000180C18041800172704700210180418094
:101C40008180C180018141818181C18170470021F2
:101C500001804180012181800021C1800181704784
:101C60000021018041808180C18001814181818189
:101C700070470000002C0140003401400004004087
:101C800000080040000C004021B1028842F001022F
:101C9000028004E002884FF6FE731A40028070470B
:101CA00031B1B0F8442042F40042A0F8442005E0ED
:101CB000B0F84420C2F30E02A0F8442070471AB1D5
:101CC00083890B43838102E083898B43838170473F
:101CD0008182704741EA0203A0F8483070471AB188
:101CE00083890B43838102E083898B43838170471F
:101CF00001894FF6F8721140018170470A460021B0
:101D000001894FF68F73194011430181704730B537
:101D100004460D4629462046FFF7F0FF208940F093
:101D20000700208130BD2DE9F04104460D461646DE
:101D30001F46602D06D13B46012231462046FFF763
:101D40005AFE05E03B46012231462046FFF79DFE44
:101D500029462046FFF7D2FF208940F00700208166
:101D6000BDE8F08130B50C4600210189C9B24FF6BB
:101D7000FF7505EA0325154325432943018130BD3D
:101D80002DE9F04105460E46174698460024434685
:101D90003A4631462846FFF7E5FF2C894FF6F870A2
:101DA000044044F007044FF68F70044044F0700480
:101DB0002C81BDE8F081F0B504460D4616461F465D
:101DC0003B46324629462046FFF7CCFF208940F4A7
:101DD00080402081F0BD0185828270470A46002143
:101DE00001884FF68F731940114301807047F0B599
:101DF0000C4615461E460021002200230189028B55
:101E0000038C4FF6F877394021434FF6FC473A40B0
:101E100040F201173A434FF6DD773B404FF6FF772C
:101E200007EA06172F433B43018102830384F0BD79
:101E30000A460021018B4FF68F731940114301832D
:101E400070470A460021018B48F6FF7319404FF690
:101E5000FF7303EA02231943018370470A460021F6
:101E6000818B4FF68F7319401143818370470A4667
:101E70000021818B48F6FF7319404FF6FF7303EA88
:101E8000022319438183704721B1028842F0800206
:101E9000028004E002884FF67F731A400280704788
:101EA00021B1828842F00402828004E082884FF6E9
:101EB000FB731A408280704721B1828842F0080289
:101EC000828004E082884FF6F7731A408280704760
:101ED00021B1828842F00102828004E082884FF6BC
:101EE000FE731A40828070470A460021018B4FF62C
:101EF000F77319401143018370470A460021018B93
:101F00004FF2FF7319404FF6FF7303EA02231943A0
:101F1000018370470A460021818B4FF6F773194001
:101F20001143818370470A460021818B4FF2FF7372
:101F300019404FF6FF7303EA022319438183704768
:101F40000A460021018B4FF6FB73194011430183B0
:101F500070470A460021018B4FF6FF3319404FF6B8
:101F6000FF7303EA02231943018370470A460021E5
:101F7000818B4FF6FB7319401143818370470A46EA
:101F80000021818B4FF6FF3319404FF6FF7303EAB0
:101F900002231943818370470A460021018B4FF6C3
:101FA0007F7319401143018370470A460021018B5A
:101FB000C1F30E014FF6FF7303EA022319430183B5
:101FC00070470A460021818B4FF67F7319401143F9
:101FD000818370470A460021818BC1F30E014FF6C1
:101FE000FF7303EA02231943818370470A460021E5
:101FF000018C4FF6FD7319401143018470470A4666
:102000000021018C4FF6F77319401143018470478A
:102010000A460021018C4FF6DF7319404FF6FF731B
:1020200003EA02131943018470470A460021018C18
:102030004FF67F7319404FF6FF7303EA02131943FB
:10204000018470470A460021018C4FF6FF53194066
:102050004FF6FF7303EA02231943018470470A46CF
:102060000021018C4FF2FF7319404FF6FF7303EA12
:1020700002231943018470470A460021018C4DF662
:10208000FF7319404FF6FF7303EA023319430184CB
:10209000704730B5002301248C40A3B2048C9C43CC
:1020A0000484048C02FA01F5ADB22C43048430BDE3
:1020B00030B5002304248C40A3B2048C9C430484D8
:1020C000048C02FA01F5ADB22C43048430BD70B526
:1020D0000346002000241846183001258D40ACB27C
:1020E0001D8CA5431D8409B1082909D100EB6100AD
:1020F000056825F0700505600568154305600EE06C
:102100000D1FC5F34E052844056825F4E04505601C
:1021100005684FF6FF7606EA02263543056070BD76
:1021200021B1028842F00202028004E002884FF6E8
:10213000FD731A400280704721B1028842F0040208
:10214000028004E002884FF6FB731A400280704759
:1021500021B1828842F08002828004E082884FF6BA
:102160007F731A408280704702884FF6F7731A40D7
:10217000028002880A430280704782884FF68F737C
:102180001A40828082880A438280704702894FF613
:10219000F8731A40028102890A430281704702895A
:1021A0004FF67F731A40028102890A430281704709
:1021B00081847047818570478186704701877047A9
:1021C00081877047A0F84010704702884FF6FF43A0
:1021D0001A40028002880A43028070470146888EB6
:1021E00070470146088F70470146888F7047014647
:1021F000B1F8400070470146888C70470146088D51
:10220000704702460020138A0B400BB1012000E00A
:1022100000207047CA430282704730B50246002052
:1022200000230024158A05EA0103958905EA0104C3
:1022300013B10CB1012000E0002030BDCA4302827E
:102240007047000010B50446FB48844209D10121C3
:102250008803FEF719FF00214FF48040FEF714FFBA
:1022600032E0F648844209D101214804FEF719FF03
:1022700000214FF40030FEF714FF25E0F0488442BF
:1022800009D101218804FEF70CFF00214FF48020C2
:10229000FEF707FF18E0EB48844209D10121C8048A
:1022A000FEF7FFFE00214FF40020FEF7FAFE0BE0E0
:1022B000E548844208D101210805FEF7F2FE00211D
:1022C0004FF48010FEF7EDFE10BD2DE9F04786B00B
:1022D00005460E460024A24600BFA1460027B0894D
:1022E00000B100BF2F462C8A4CF6FF700440F088E6
:1022F00004432C82AC894EF6F3100440B088318937
:102300000843718908430443AC81AC8A4FF6FF400F
:102310000440B0890443AC8201A8FEF72EFEC648F3
:10232000874202D1DDF810A001E0DDF80CA0A889F9
:1023300000F4004040B10AEBCA0000EB0A1031681B
:102340004900B0FBF1F807E00AEBCA0000EB0A1005
:1023500031688900B0FBF1F86420B8FBF0F00401AB
:102360002009642101FB1089A88900F4004040B1D4
:10237000322000EBC900B0FBF1F000F0070004438D
:1023800008E0322000EB09106421B0FBF1F000F00E
:102390000F0004432C8106B0BDE8F0874FF41651BE
:1023A000016000218180C18001810C2141810021D7
:1023B0008181704710B502460020108A4FF2FF035A
:1023C00018400B884C8823438C882343CC882343B4
:1023D0001843108210BD0021018041808180C1809E
:1023E000704721B1828942F40052828104E08289DF
:1023F0004DF6FF731A4082817047F0B50346002402
:1024000000260025002040F66A17B94200D100BF1F
:102410001846C1F3421401F01F06012707FA06F51A
:10242000012C01D10C3004E0022C01D1103000E06D
:1024300014301AB107682F43076002E00768AF4302
:102440000760F0BD1AB1838A0B43838202E0838A5E
:102450008B4383827047028A4FF6F0731A400282E0
:10246000028A0A430282704782894FF2FF731A4040
:10247000828182890A438281704721B1828942F038
:102480000202828104E082894FF6FD731A40828144
:102490007047028A4FF6DF731A400282028A0A43AB
:1024A0000282704721B1028A42F48042028204E033
:1024B000028A4BF6FF731A4002827047C1F308028A
:1024C0008280704701468888C0F308007047818980
:1024D00041F0010181817047028BD2B20283028BED
:1024E00042EA012202837047028B02F47F42028398
:1024F000028B0A430283704721B1828A42F0200294
:10250000828204E0828A4FF6DF731A40828270472B
:1025100021B1828A42F01002828204E0828A4FF660
:10252000EF731A408282704721B1828A42F008021A
:10253000828204E0828A4FF6F7731A4082827047E3
:1025400021B1828942F40042828103E08289C2F390
:102550000E028281704721B1828A42F40062828237
:1025600004E0828A4FF2FF731A4082827047828AA7
:102570004FF6FB731A408282828A0A438282704736
:1025800021B1828A42F00202828204E0828A4FF6FE
:10259000FD731A408282704702460020B1F5007F29
:1025A00000D100BF13880B400BB1012000E00020D8
:1025B000704701F40072B2F5007F00D100BFCA433A
:1025C0000280704770B502460024002300250020D9
:1025D00040F66A16B14200D100BFC1F3421501F0C6
:1025E0001F03012606FA03F3012D02D19689334019
:1025F00006E0022D02D1168A334001E0968A33406C
:102600000C12012606FA04F41688344013B10CB1FA
:10261000012000E0002070BD10B50022002340F62C
:102620006A14A14200D100BF0A1201249440A3B24F
:10263000DC43048010BD000000380140004400402D
:1026400000480040004C00400050004010B50121FF
:102650000807FEF726FD00214FF08050FEF721FD10
:1026600010BD2A4908627047284908617047014631
:102670000020274A106820F0E000084310607047EF
:102680002249A0310860704710B502460020204B57
:10269000186820F00300104318601E4B1B6843F0BD
:1026A00004031C4C2360012901D130BF00E020BF8E
:1026B000184B1B6823F00403164C236010BD14480C
:1026C000006840F00400124908600846006840F0C5
:1026D000020008600F48006840F004000D490860DF
:1026E00000BF00BF30BF704701460020084A526853
:1026F0000A400AB1012000E000207047044909683F
:1027000041EA8001024A11607047000000000E4259
:102710000070004010ED00E008B501210C20FEF72C
:1027200099FC0420ADF8000010208DF80300032070
:102730008DF8020069468448FEF7D0F904218248EA
:10274000FEF779FA4FF40040ADF8000010208DF844
:10275000030003208DF8020069467C48FEF7BEF9AD
:102760004FF400417948FEF768FA08BD7848006ADE
:1027700058B94FF4FA70764908627648006808B98B
:10278000012000E0002073490860704710B57248CE
:10279000006A01285BD1714890F8490009284CD2A1
:1027A000DFE800F04B050E172029353642006C4952
:1027B0008A686949487E6A49283104F0A1FC3DE0F5
:1027C00067498A686449487E6549283104F098FC65
:1027D00034E063498A686049487E6149283104F0E1
:1027E0008FFC2BE05E498A685B49487E5C49283152
:1027F00004F086FC22E058488068594988608A685D
:102800005549487E5649283104F07AFC16E015E017
:1028100051488068524988608A684F49487E5049CB
:10282000283104F06DFC09E04D498A684A49487E28
:102830004B49283104F064FC00E000BF00BF0020D9
:10284000454908624649283146A009F045FB10BDBC
:102850001CB504F0CAFAFFF75FFFFF2048498880E3
:1028600000F0F9FB6EE03D4890F84900052813D1CF
:102870003948806880B13648006C68B9C82034494E
:102880000864354880683FA109230122CDE9001082
:10289000B421FA2000F088FBFFF768FF3D488078FC
:1028A0003C49C8700846407888700846007830B9BE
:1028B00008468078C978884201D005F009F9364881
:1028C00090F8220028B901F0AEFB6420324981F86B
:1028D000220006F01BFC314890F82C0000F010009C
:1028E00090B11B48C06A78B905F02EFD05F0AAF931
:1028F00000202A4981F82E00FFF748FF2048806910
:1029000030B900F05BFF03E00020244981F83A0071
:102910000F48406C20B908F054FD64200C4948640D
:102920000E480078012802D0022809D107E01B4890
:1029300090F82C0000F0100000B102E000BF00E0B1
:1029400000BF00BF8FE70000000C014000080140FD
:102950005804002088812142300400208C0000208F
:1029600074010020C9CFB4ABBFDBB7D1D6B8C1EE7C
:10297000A3ACBBE1D4B169643A25730D0A00000031
:10298000A0040020CFB5CDB3CEB4B4E6A3BA25647D
:102990000D0A000054000020BC040020F4030020B5
:1029A000704706E0A6A009F097FA4FF4FA7008F015
:1029B000ACFAF7E700BFFEE700BFFEE700BFFEE7A7
:1029C000704770477047704710B50420FFF78CFEC2
:1029D000012802D19FA009F07FFA4FF48030FDF763
:1029E00036FD10BD10B501218807FFF716FC28B190
:1029F00007F07FFC01218807FFF720FC10BD10B510
:102A000001219948FFF709FC00287DD000F028FA41
:102A100000F05DFA9548006820B194480068401EB7
:102A2000924908609148C06920B19048C069401E31
:102A30008E49C8618E48808E002804DD8C48808EC7
:102A4000401E8B4988868948406820B18748406885
:102A5000401E864948608648408E002804DD844830
:102A6000408E401E82494886824890F82200002805
:102A700006DD804890F82200401E7E4981F8220041
:102A80007A48C06820B17948C068401E7749C8605C
:102A90007648006920B175480069401E7349086195
:102AA0007248006A20B17148006A401E6F4908628E
:102AB0006E48C06A20B16D48C06A401E6B49C8624A
:102AC0006A48006C20B16948006C401E6749086480
:102AD0006648406C20B16548406C401E63494864BC
:102AE0006248806820B161488068401E5F49886004
:102AF0005E48C06B20B15D48C06B401E5B49C86337
:102B00005A48006B38B100E020E05848006B401E86
:102B10005649086316E05848406898B15648007E08
:102B200080B90220544908760846416853A009F04C
:102B3000D3F9514880685049496808444E49886033
:102B40000020486001214848FFF778FB10BD10B510
:102B500040F225514F48FFF735FD38B14D48FFF79A
:102B6000B1FCC4B221464C4804F0EAFE10BD10B5D9
:102B700040F225514948FFF725FDD8B14748FFF7F6
:102B8000A1FCC4B24648B0F80004C0F30E0040F205
:102B9000FF3188420EDA4249B1F80014C1F30E0049
:102BA000411C3F4AB2F8002461F30E023C49A1F8EF
:102BB00000240C5440F224413848FFF703FD01285B
:102BC00018D13748B0F8000420F4004000F5004068
:102BD0003349A1F800043148FFF774FCC4B231A1B5
:102BE0002F4808F0C5FD08B1012000E0002022496F
:102BF00081F8240010BD10B540F225512C48FFF794
:102C0000E1FC10BD10B540F225512A48FFF7DAFC6F
:102C100068B12848FFF756FCC4B2154890F82C005C
:102C200000F0100018B12146234804F089FE10BDC1
:102C300010B540F225512148FFF7C4FC10BD00003B
:102C4000486172644661756C745F48616E646C655E
:102C5000720D0A0073797374656D20706F776572F9
:102C600020646F776E0D0A000004004058040020B5
:102C7000F4030020BC040020300400205379735674
:102C800061722E506C7573436E7453756D3D25647F
:102C90000D0A000000380140FC2A002000440040DA
:102CA00004440020434C4F5345440D0A00000000EB
:102CB00000480040004C0040F4220020005000403A
:102CC00000B585B001210420FEF7C4F90121880375
:102CD000FEF7C0F94FF40070ADF8100018208DF821
:102CE000130003208DF8120004A92148FDF7F6FE19
:102CF0004FF48060ADF8100004208DF8130004A993
:102D00001B48FDF7EBFE4FF4E13000900020ADF8DA
:102D10000400ADF80600ADF80800ADF80C000C207A
:102D2000ADF80A0069461348FFF7CFFA012240F2D6
:102D300025511048FFF761FB01210E48FFF751FBB9
:102D400005B000BD00BF0B49098801F04001002912
:102D5000F9D00849091D0880704700B5024602E015
:102D6000D05CFFF7EFFFD05C0028F9D100BD000078
:102D7000000801400038014008B501210820FEF795
:102D800069F92020ADF8000010208DF80300032021
:102D90008DF8020069466948FDF7A0FE0120ADF8F4
:102DA000000069466548FDF799FE0220ADF8000075
:102DB00069466248FDF792FE20216048FDF73BFF1F
:102DC00001215E48FDF737FF02215C48FDF733FF24
:102DD00008BD10B5044604F0010020B12021574879
:102DE000FDF72BFF03E020215448FDF724FF04F0FA
:102DF000020020B101215148FDF71FFF03E001212E
:102E00004E48FDF718FF04F0040020B102214B48A2
:102E1000FDF713FF03E002214848FDF70CFF10BD4A
:102E200008B501213020FEF715F91020ADF800009B
:102E300003208DF8020010208DF8030069464048F9
:102E4000FDF74CFE0420ADF8000003208DF80200D1
:102E500010208DF8030069463A48FDF73FFE08BD93
:102E600039480069002831D03848C06870BB3848FC
:102E7000007810B1012827D110E03648D0F80900B9
:102E80003249C8600120324908703348006808B9E7
:102E9000012000E000203049086016E02E4800685C
:102EA00008B9012000E000202B4908602948D0F82B
:102EB0000D002649C8600020254908702248006995
:102EC000401E2149086100E000BF00BF70471E4856
:102ED0004069002831D01D48006970BB1F48007848
:102EE00010B1012827D110E01A48D0F81100174975
:102EF00008610120194908701748006808B90120C5
:102F000000E000201449086016E01348006808B982
:102F1000012000E00020104908600E48D0F815009C
:102F20000A49086100200D49087007484069401EA1
:102F30000549486100E000BF00BF7047000C014038
:102F400000140140001001407401002058040020CA
:102F5000280000208C000020880122422900002047
:102F60000EB501210846FEF782F84FF47A70ADF8ED
:102F700004004720ADF800000020ADF80600ADF8D1
:102F8000020069464FF08040FEF722FB01218807CE
:102F9000FFF740F9012211469007FEF790FE01214C
:102FA0008807FEF771FE0EBDF0B5ADF5037D044652
:102FB0000D4616461F4689A8829002A8829A8899D3
:102FC00008F0AEFF0020829002A83B463246294618
:102FD0000090204601F063FA0DF5037DF0BD0FB4BB
:102FE00030B5ADF5017D04460D4687A88090684652
:102FF000809A869908F094FF002080906A462946BE
:10300000204602F020F90DF5017D30BC5DF814FB7F
:1030100010B5FFF755FE4FF44870FE490880401088
:1030200048800020886141F28830FB49C8624FF631
:10303000FF70F849C8800881F849C88008818881F4
:10304000C881FA200882C82048820920087500201B
:1030500001F062FF10BD10B586B00124002002F01F
:1030600018F8EF48D0F80100EEA122460523CDE97B
:10307000001002210A20FFF797FFE94890F824008A
:10308000E74991F82310E64A92F82220CDE9002181
:103090000290E34890F82130E6A212210020FFF7C9
:1030A0009EFFDF4890F83000DD4991F82F10DC4A90
:1030B00092F82E20CDE900210290D94890F82D30C9
:1030C000DCA201210020FFF78AFFD54890F82C10E0
:1030D00090F82B00D24A92F82A20CDE900200291E4
:1030E000CF4890F82930D3A202210020FFF777FFC4
:1030F000CB4890F82800CA4991F82710C84A92F89E
:103100002620CDE900210290C54890F82530C9A2BB
:1031100013210020FFF763FFC14890F85100C04918
:1031200091F85010BE4A92F84F20BD4B93F84E30A4
:10313000CDE90132CDE90310B94890F84D00009077
:10314000B74890F84C30C0A214210020FFF747FF89
:10315000B34B5E33C4A215210020FFF740FFB04BF4
:10316000A033C1A216210020FFF739FFAC48B0F808
:103170003130BEA217210020FFF731FFA848D0F858
:103180001130BAA21B210020FFF729FFA448D0F874
:103190001530B6A21D210020FFF721FFA048D0F86E
:1031A0000930B2A21C210020FFF719FF9C48D0F87B
:1031B0000D30AEA21E210020FFF711FF98480078C5
:1031C000012802D0022814D109E0A9A0E2B202230A
:1031D0004B21009040F2A320FFF7E6FE13E0A6A0EB
:1031E000E2B202234B21009040F2A320FFF7DCFE65
:1031F00009E0A3A0E2B202234B21009040F2A320F9
:10320000FFF7D2FE00BF00BF854890F84B0010B119
:10321000012814D109E09CA0E2B20223822100908F
:103220004FF42A70FFF7C0FE13E098A0E2B2022329
:10323000822100904FF42A70FFF7B6FE09E094A0B7
:10324000E2B20223822100904FF42A70FFF7ACFE15
:1032500000BF00BF7248D0F8190010B1012814D186
:1032600009E08CA0E2B2022340F26D11009093209D
:10327000FFF79AFE13E088A0E2B2022340F26D113C
:1032800000909320FFF790FE09E081A0E2B20223B4
:1032900040F26D1100909320FFF786FE00BF00BF43
:1032A0005F4890F84A0010B1012814D109E079A0D4
:1032B000E2B2022340F2951100909320FFF774FED2
:1032C00013E075A0E2B2022340F295110090932022
:1032D000FFF76AFE09E06EA0E2B2022340F2951108
:1032E00000909320FFF760FE00BF00BF4C4890F8AD
:1032F0004900092856D2DFE800F055050F19232DA3
:1033000037414B0065A0E2B20223B421009040F2A5
:103310007220FFF749FE4FE064A0E2B20223B4211D
:10332000009040F27220FFF73FFE45E063A0E2B25A
:103330000223B421009040F27220FFF735FE3BE0FB
:1033400062A0E2B20223B421009040F27220FFF7A3
:103350002BFE31E061A0E2B20223B421009040F2E2
:103360007220FFF721FE27E060A0E2B20223B42121
:10337000009040F27220FFF717FE1DE05FA0E2B25E
:103380000223B421009040F27220FFF70DFE13E0FB
:103390005EA0E2B20223B421009040F27220FFF757
:1033A00003FE09E05DA0E2B20223B421009040F2E6
:1033B0007220FFF7F9FD00BF00BF06B010BD1CB5BD
:1033C0001748D0F8010059A100231A46CDE9001092
:1033D0004FF4EA714FF42F70FFF7E6FD1CBDF0B516
:1033E00085B00F4890F837000A2190FBF1F201FBFD
:1033F00012040B4890F8370090FBF1F5084890F85C
:10340000380090FBF1F201FB1206054890F83800F5
:103410008EE00000A00400205804002004330020A7
:103420008C000020C9E8B1B8B1E0BAC5A3BA2564E0
:1034300020000000253033642E253033642E2530E3
:1034400033642E2530336400253033642E25303329
:10345000642E253033642E253033642E25303364BA
:103460002E25303364000000257300002564000021
:10347000CDF8CFDF2000000057694669200000002A
:10348000CEB4B6A8D2E500004F4646004F4E20000D
:10349000455252004E4320004E4F2000B0B4BCFCB9
:1034A000CFFBB7D1C4A3CABD20000000B9CCB6A8D9
:1034B000CFFBB7D1C4A3CABD20000000B5B5CEBBB9
:1034C000CFFBB7D1C4A3CABD200000002020B2E9C1
:1034D000D1AFBBFAC4A3CABD20000000202020B495
:1034E000E6B1D2C4A3CABD2020000000202020CA1B
:1034F000DBB1D2C4A3CABD2020000000B4E6C8A13D
:10350000D2BBCCE5C4A3CABD20000000B5C0D5A283
:10351000BFD8D6C6C4A3CABD200000002020CEB4A8
:10352000B6A8D2E5C4A3CABD2000000025642000CF
:1035300090FBF1F7BAA000231A464FF4E271CDE9EF
:103540000176CDE9035400904FF42F70FFF72CFD66
:1035500005B0F0BD10B5B749C88800F0CCFEFFF744
:103560002EFFFFF73CFF10BD7CB50446B24890F833
:103570004900092826D2DFE800F02505090D1115BC
:10358000191D2100042001F084FD1FE0022001F03C
:1035900080FD1BE0032001F07CFD17E0142001F00A
:1035A00078FD13E0062001F074FD0FE0052001F026
:1035B00070FD0BE0052001F06CFD07E0132001F029
:1035C00068FD03E0322001F064FD00BF00BF9B49AD
:1035D000C88800F090FE9948008970B19749088921
:1035E00000F0A4FE96A0954ACDE90004937A918854
:1035F00050880122FFF7D8FC09E091A08F4ACDE95D
:103600000004937A918850880022FFF7CDFC204671
:1036100008F0D6F805462946204608F09EF87CBDFD
:10362000FEB50646844890F8490009285ED2DFE8D6
:1036300000F05D050913323C515559000C2001F092
:1036400028FD57E00A2001F024FD002001F064FC71
:103650000A2001F01EFD4DE00B2001F01AFD0020B4
:1036600001F05AFC0B2001F014FD764880680A2115
:10367000B0FBF1F201FB120472488068B0FBF1F577
:1036800071A009230022B421CDE901540090FA2051
:10369000FFF78AFC2EE0122001F0FBFC002001F075
:1036A0003BFC122001F0F5FC24E00E2001F0F1FCBF
:1036B000002001F031FC0E2001F0EBFC6648806830
:1036C00066A109230022CDE90010B421FA20FFF7FA
:1036D0006BFC0FE00D2001F0DCFC0BE0102001F092
:1036E000D8FC07E0112001F0D4FC03E0162001F023
:1036F000D0FC00BF00BF5149888900F0FCFD4F4855
:10370000C08980B14D49088900F010FE5B48AFF2D6
:10371000A8214A4ACDE90010137D518A108A01225E
:10372000FFF742FC0BE05548AFF2C421434ACDE914
:103730000010137D518A108A0022FFF735FCFEBD70
:103740001CB50446152001F0A4FC3C49C88800F0D3
:10375000D2FD3A49088900F0E9FD39A0072300228B
:10376000C821CDE900044FF49670FFF71DFC1CBD85
:1037700038B504462F49C88800F0BDFD2D49088999
:1037800000F0D4FD3EA02D4A0090937A9188508895
:103790000022FFF709FC38BD10B53C4890F8240022
:1037A00001280AD114224FF4C8714FF4167001F0A9
:1037B00001F90020354981F8240010BD10B51D48DD
:1037C000007C1C49C8730846807B087430484068F8
:1037D00008B9012088731748C07B1649097C8842C4
:1037E0001CD01448807B012804D0022806D003286E
:1037F0000DD108E02148FFF713FF0CE00F482830F7
:10380000FFF7B2FE07E023A0FFF79AFF03E024A032
:10381000FFF7AEFF00BF00BFFFF79CFE10BD00002A
:10382000253032642E253032642E253032642E2528
:1038300030326400A00400208C00002004330020FB
:10384000257320007401002025642E256420D4AA4D
:103850002FB4CE0D0A20000030040020CFB5CDB328
:10386000CEB4B4E6A3BA25640D0ACBF9CAF4C8CB2A
:10387000A3BA68656C6C6F2000000000BC340020A7
:103880006572726F20636D6400000000BC0400204C
:1038900058040020B5C7C2BCB3C9B9A600000000D7
:1038A0006572726F206D6F646500000070B505462B
:1038B000002405E0601CC4B2C82C01DD002070BDEE
:1038C0000221F748FDF779FD0028F3D02946F44896
:1038D000FDF720FD002405E0601CC4B2C82C01DD0A
:1038E0000020ECE70121EE48FDF767FD0028F3D04A
:1038F000EB48FDF711FDC0B2E1E7002103E000BF96
:1039000000BF00BF491C8142F9D3704700B587B0A2
:1039100001212D20FDF79EFB0121C803FDF7A7FB28
:103920000121E048FDF7ABF94FF40040ADF8040089
:1039300003208DF8060010208DF8070001A9DA4851
:10394000FDF7CCF84020ADF8040003208DF8060008
:1039500010208DF8070001A9D448FDF7BFF84020DA
:10396000ADF8040003208DF8060010208DF8070044
:1039700001A9CF48FDF7B2F83820ADF804001820AF
:103980008DF8070001A9CA48FDF7A8F80020ADF896
:1039900008004FF48270ADF80A000020ADF80C006A
:1039A000ADF81000ADF80E004FF40070ADF8120045
:1039B0000020ADF816001820ADF8140002A9B84890
:1039C000FDF7D2FB0121B648FDF773FC07B000BD3F
:1039D00070B504460D460020B64908607E2000EA16
:1039E00044063046FFF762FF2846FFF75FFF0120DD
:1039F000B149C1F8980170BD70B504460026002099
:103A0000AC4908607E2000EA440040F0800528466A
:103A1000FFF74CFF0020FFF749FF06460120A649AB
:103A2000C1F89801304670BD70B505460C460026B9
:103A30002846FFF7E1FF064646EA04012846FFF75D
:103A4000C7FF70BD10B51420FFF7D6FF044604F081
:103A5000030018B903211420FFF7E6FF10BD70B56D
:103A600005460C4600262846FFF7C6FF064626EA0E
:103A700004012846FFF7ACFF70BD10B50446412C89
:103A800026D108210846FFF7EAFF3D211120FFF764
:103A90009FFF86211720FFF79BFF7F212620FFF73E
:103AA00097FF1E212D20FFF793FF00212C20FFF709
:103AB0008FFF8D212A20FFF78BFF3E212B20FFF760
:103AC00087FF4FF47A70FFF718FFFFF7BBFF01E0A5
:103AD000012010BD0020FCE710B503211420FFF7E2
:103AE000BEFF10BD10B5012074490860642007F0C6
:103AF0000CFA00207249C1F89801642007F005FA19
:103B000001206E490860642007F0FFF90F210120B1
:103B1000FFF75EFF0F210120FFF75AFF0A2007F091
:103B2000F4F93D211120FFF753FF1E212D20FFF74F
:103B30004FFF00212C20FFF74BFF8D212A20FFF79C
:103B400047FF3E212B20FFF743FF40211520FFF7C1
:103B50003FFF002010BD10B5FFF7D8FEFFF7C2FFF2
:103B6000FFF7BAFF0A2007F0D0F9FFF76BFF4120FB
:103B7000FFF783FF10BD10B5FFF7B4FFFFF7ACFFF1
:103B80000A2007F0C2F9FFF75DFF4120FFF775FF3C
:103B900010BD10B5FFF7A6FFFFF79EFF0A2007F044
:103BA000B4F9FFF74FFF10BD2DE9FE4F06468846DA
:103BB00091469A46DDF830B0022002900020019034
:103BC00000900C2E06D00E2E09D11220019010204C
:103BD000009005E0772001903020009000E000BFC9
:103BE00000BF019840F080010220FFF7F1FE802124
:103BF0000420FFF734FF00210120FFF7E9FE8021B8
:103C00000A20FFF711FF002506E018F8051009202B
:103C1000FFF7DEFE681C85B24D45F6DB314601201C
:103C2000FFF7D6FE0C2E03D180210D20FFF7FCFEFE
:103C30004FF4167500BF0420FFF7DEFE0446681E31
:103C400085B235B104F0010018B900982040002871
:103C5000F1D080210D20FFF702FF002D4AD0062071
:103C6000FFF7CAFE00F01B0060BB00200290019825
:103C7000204000F0010008B1012002900C2E39D143
:103C80000A20FFF7B9FE04460C20FFF7B5FE00F04E
:103C90000707C7B1601E07EBC0008BF8000016E0F5
:103CA000003C0040000230000008014000140140C8
:103CB000000C0140988122420080224298812142DA
:103CC0000080214214E0E006000E8BF8000004B9E9
:103CD0000124122C00DD1224002506E00920FFF744
:103CE0008BFE0AF80500681C85B2A542F6DB01E0F0
:103CF0000220029080210C20FFF796FE0021012077
:103D0000FFF766FE0298BDE8FE8F70B588B00546E5
:103D10000C4608210846FFF7A2FE07210D20FFF7F9
:103D200057FE03211420FFF77FFE8DF8085007A8E7
:103D300002AB012202A900900C20FFF735FF0646D6
:103D400056B99DF81C00102806D19DF80800207077
:103D50009DF80900607000E00226304608B070BD92
:103D6000F0B587B00546002708210846FFF777FE23
:103D700000210D20FFF72CFE80210E20FFF76FFEA3
:103D800093208DF8040020208DF8050006A801ABD3
:103D9000022201A900900C20FFF706FF064686B913
:103DA000002407E001A8005D285501A8005D4740F8
:103DB000601CC4B2042CF5DB01A8005DB84200D041
:103DC000022680210E20FFF72FFE304607B0F0BDFF
:103DD0002DE9F04107468846154604210520FFF7E6
:103DE0003EFE00210120FFF7F3FD80210A20FFF7AE
:103DF0001BFE002405E0395D0920FFF7E9FD601C8A
:103E0000C4B24445F7DB03210120FFF7E1FDFF24A5
:103E100000BF0520FFF7F0FD0646601EC4B21CB1CE
:103E200006F004000028F4D02220FFF7E5FD2870FA
:103E30002120FFF7E1FD6870BDE8F08170B588B022
:103E4000054693208DF8080070208DF809000020A9
:103E50008DF80E0000240BE0295D02AAA01C11546D
:103E60009DF80E00295D48408DF80E00601CC4B21C
:103E7000042CF1DB0DF10F02072102A8FFF7A8FFC8
:103E800008210846FFF7EBFD07A802AB092202A9AB
:103E900000900C20FFF788FE06462EB99DF81C0006
:103EA000182801D1002600E00226304608B070BD77
:103EB0002DE9F04188B004460D4616461F468DF8A0
:103EC00008408DF809503068CDF80A00B088ADF888
:103ED0000E003868049007A802AB0C2202A90090DB
:103EE0000E20FFF761FE8046B8F1000F05D10820D3
:103EF000FFF782FD00F0080008B94FF002084046C5
:103F000008B0BDE8F081F0B587B005460E46302018
:103F10008DF804008DF805500DF10602022101A86C
:103F2000FFF756FF06A801AB042201A900900C2060
:103F3000FFF73AFE07466FB99DF81800902809D19F
:103F4000002404E001A8005D3055601CC4B2102CB0
:103F5000F8DB00E00227384607B0F0BDF0B587B0C7
:103F600006460F46A0208DF804008DF805600DF17F
:103F70000602022101A8FFF72BFF06A801AB0422CD
:103F800001A900900C20FFF70FFE05464DB99DF8E2
:103F90001800042805D19DF8040000F00F000A283D
:103FA00000D0022515BB002404E0385D01A90855A6
:103FB000601CC4B2102CF8DB05AA102101A8FFF781
:103FC00007FF06A801AB122201A900900C20FFF701
:103FD000EBFD05464DB99DF81800042805D19DF864
:103FE000040000F00F000A2800D00225284607B080
:103FF000F0BD10B588B050208DF8080000208DF875
:1040000009000DF10A02022102A8FFF7E1FE07A84C
:1040100002AB042202A900900C20FFF7C5FD044664
:10402000204608B010BD10B575492620FFF76DFE7B
:10403000002869D172481230FFF792FE002863D140
:104040006F481230FFF7FAFE00285DD101206C495D
:1040500081F824006B4840696A4908616848817C9E
:10406000C07C01EB00216648007D01EB0041644803
:10407000407D01EB00606349C8600846C068486144
:104080000846C26860A1624807F036FF302320224C
:104090005F49A1F5C87005F0ABFE012059490862DF
:1040A000574B12335B4A07216020FFF701FF58BBD3
:1040B0005349891C0620FFF726FF28BB504880780B
:1040C000552819D14E48C078AA2815D15248808960
:1040D000401C80B250498881052801DB002088817E
:1040E0004D4881894B480A3800EB410000884A4915
:1040F0008860FFF77EFF05E04848807B012801D1FA
:10410000FFF777FFFFF775FF10BD70B504460D464A
:10411000434841794079401C414A5071FF2937D1C9
:10412000002011464871084601790079401C107141
:10413000FF292DD10020114608710846C178C078AA
:10414000401CD070FF2923D100201146C8700846BA
:1041500081788078401C9070FF2919D10020114689
:104160008870084641784078401C5070FF290FD174
:10417000002011464870084601780078401C1070F5
:10418000FF2905D100201146087026A007F0A4FEE3
:1041900070BD0EB51A492620FFF7B7FD00282ED1B5
:1041A00017481230FFF7DCFD002828D114481230E0
:1041B000FFF744FE18BB0120114981F8240001F1EA
:1041C0001203174A04216020FFF772FE98B91448C1
:1041D000407913490979124AD278CDE90021029039
:1041E0000F4883784278017812A007F075FE2720E7
:1041F0001A49487003E006210948FFF786FF0EBD03
:10420000BC0400203004002025313075000000007F
:104210002C030020CF00002074010020A004002007
:104220002A000020CEDEB7A8C6C6BDE2A3A10D0AB3
:10423000000000006B6579612069733A3078257859
:104240002C307825782C307825782C307825782CEF
:10425000307825782C307825780D0A00540000201D
:10426000014606E04FF47A7200E0521E002AFCDCA0
:10427000491E0029F6DC704710B5044603E020789B
:10428000FEF760FD641C20780028F8D110BD70B5E1
:1042900005460E46002404E0285DFEF753FD601C31
:1042A00084B2B442F8DB70BD70B505460E460024FA
:1042B0000AE035F81410080AFEF744FD15F814005A
:1042C000FEF740FD601C84B2B442F2DB70BD10B555
:1042D000EE20FEF737FD0020FEF734FDFF20FEF74D
:1042E00031FDFC20FEF72EFDFF20FEF72BFDFF2009
:1042F000FEF728FD10BD10B50446EE20FEF722FDA6
:104300004120FEF71FFD200AFEF71CFDE0B2FEF77C
:1043100019FDFF20FEF716FDFC20FEF713FDFF2020
:10432000FEF710FDFF20FEF70DFD10BD10B5044691
:10433000EE20FEF707FD4220FEF704FD200AFEF7FF
:1043400001FDE0B2FEF7FEFCFF20FEF7FBFCFC20C7
:10435000FEF7F8FCFF20FEF7F5FCFF20FEF7F2FC6D
:1043600010BD70B506460C461546EE20FEF7EAFC79
:10437000A320FEF7E7FCF0B2FEF7E4FC200AFEF70C
:10438000E1FCE0B2FEF7DEFC280AFEF7DBFCE8B257
:10439000FEF7D8FCFF20FEF7D5FCFC20FEF7D2FC90
:1043A000FF20FEF7CFFCFF20FEF7CCFC70BD10B560
:1043B000EE20FEF7C7FC0120FEF7C4FCFF20FEF74D
:1043C000C1FCFC20FEF7BEFCFF20FEF7BBFCFF207B
:1043D000FEF7B8FC10BD70B504460D46EE20FEF7A2
:1043E000B1FC4320FEF7AEFCE0B2FEF7ABFCE8B256
:1043F000FEF7A8FCFF20FEF7A5FCFC20FEF7A2FCC0
:10440000FF20FEF79FFCFF20FEF79CFC70BD70B5FF
:1044100006460C461546EE20FEF794FC4520FEF7B6
:1044200091FCF0B2FEF78EFC200AFEF78BFCE0B2A6
:10443000FEF788FC280AFEF785FCE8B2FEF782FC4E
:10444000FF20FEF77FFCFC20FEF77CFCFF20FEF740
:1044500079FCFF20FEF776FC70BD70B504460D4672
:10446000EE20FEF76FFC4420FEF76CFC200AFEF7FE
:1044700069FCE0B2FEF766FC280AFEF763FCE8B2CE
:10448000FEF760FCFF20FEF75DFCFC20FEF75AFC07
:10449000FF20FEF757FCFF20FEF754FC70BD2DE90E
:1044A000F04104460D4616461F46DDF81880EE2002
:1044B000FEF748FC2020FEF745FC200AFEF742FCF0
:1044C000E0B2FEF73FFC280AFEF73CFCE8B2FEF73C
:1044D00039FCF0B2FEF736FCF8B2FEF733FC40468A
:1044E000FFF7CAFEFF20FEF72DFCFC20FEF72AFC9A
:1044F000FF20FEF727FCFF20FEF724FCBDE8F0813B
:104500002DE9F04106460C4615461F46DDF8188099
:10451000EE20FEF717FC2120FEF714FCF0B2FEF7A8
:1045200011FC200AFEF70EFCE0B2FEF70BFC280A95
:10453000FEF708FCE8B2FEF705FCF8B2FEF702FC55
:1045400008F0FF00FEF7FEFBFF20FEF7FBFBFC2060
:10455000FEF7F8FBFF20FEF7F5FBFF20FEF7F2FB6E
:10456000BDE8F08170B504460D46EE20FEF7EAFB8B
:104570003120FEF7E7FB200AFEF7E4FBE0B2FEF78E
:10458000E1FBE8B2FEF7DEFBFF20FEF7DBFBFC20E1
:10459000FEF7D8FBFF20FEF7D5FBFF20FEF7D2FB8E
:1045A00070BD2DE9F04104460D4616461F46EE202B
:1045B000FEF7C8FB3220FEF7C5FB200AFEF7C2FB60
:1045C000E0B2FEF7BFFB280AFEF7BCFBE8B2FEF73D
:1045D000B9FB300AFEF7B6FBF0B2FEF7B3FBF8B258
:1045E000FEF7B0FBFF20FEF7ADFBFC20FEF7AAFBB9
:1045F000FF20FEF7A7FBFF20FEF7A4FBBDE8F0813C
:104600002DE9F05F04460D4616461F46DDE90CAB6A
:10461000DDE90A89EE20FEF795FB3320FEF792FBD9
:10462000200AFEF78FFBE0B2FEF78CFB280AFEF7AC
:1046300089FBE8B2FEF786FB300AFEF783FBF0B297
:10464000FEF780FB380AFEF77DFBF8B2FEF77AFB37
:104650004FEA1820FEF776FB08F0FF00FEF772FB2A
:104660004FEA1920FEF76EFB09F0FF00FEF76AFB28
:104670004FEA1A20FEF766FB0AF0FF00FEF762FB26
:104680000BF0FF00FEF75EFBFF20FEF75BFBFC205C
:10469000FEF758FBFF20FEF755FBFF20FEF752FB0D
:1046A000BDE8F09F2DE9F04104460D4616461F4631
:1046B000DDF81880EE20FEF745FB8020FEF742FB78
:1046C000200AFEF73FFBE0B2FEF73CFB280AFEF7AC
:1046D00039FBE8B2FEF736FB300AFEF733FBF0B2E7
:1046E000FEF730FBF8B2FEF72DFB08F0FF00FEF7F7
:1046F00029FBFF20FEF726FBFC20FEF723FBFF2013
:10470000FEF720FBFF20FEF71DFBBDE8F08170B532
:1047100004460D46EE20FEF715FB5020FEF712FB77
:10472000200AFEF70FFBE0B2FEF70CFB280AFEF7AB
:1047300009FBE8B2FEF706FBFF20FEF703FBFC20B7
:10474000FEF700FBFF20FEF7FDFAFF20FEF7FAFA66
:1047500070BD2DE9F04104460D4616461F46EE2079
:10476000FEF7F0FA5120FEF7EDFA200AFEF7EAFA1A
:10477000E0B2FEF7E7FA280AFEF7E4FAE8B2FEF73D
:10478000E1FA300AFEF7DEFAF0B2FEF7DBFA380A99
:10479000FEF7D8FAF8B2FEF7D5FAFF20FEF7D2FA04
:1047A000FC20FEF7CFFAFF20FEF7CCFAFF20FEF741
:1047B000C9FABDE8F08170B505460E461446EE20F4
:1047C000FEF7C0FA6320FEF7BDFAE8B2FEF7BAFAC8
:1047D0004FF6FF7000EA44013046FFF765FDFF2009
:1047E000FEF7B0FAFC20FEF7ADFAFF20FEF7AAFABA
:1047F000FF20FEF7A7FA70BD2DE9F04104460D46F3
:1048000016461F46EE20FEF79DFA5920FEF79AFA4B
:10481000200AFEF797FAE0B2FEF794FA280AFEF7AC
:1048200091FAE8B2FEF78EFA39463046FFF73CFDC2
:10483000FF20FEF787FAFC20FEF784FAFF20FEF740
:1048400081FAFF20FEF77EFABDE8F0812DE9F04104
:1048500004460D4616461F46EE20FEF773FA7520F5
:10486000FEF770FA200AFEF76DFAE0B2FEF76AFA78
:10487000280AFEF767FAE8B2FEF764FA39463046CE
:10488000FFF712FDFF20FEF75DFAFC20FEF75AFA53
:10489000FF20FEF757FAFF20FEF754FABDE8F0813B
:1048A0002DE9F04104460D4616461F46EE20FEF760
:1048B00049FA7620FEF746FA200AFEF743FAE0B2FC
:1048C000FEF740FA280AFEF73DFAE8B2FEF73AFA98
:1048D00039463046FFF7E8FCFF20FEF733FAFC20AC
:1048E000FEF730FAFF20FEF72DFAFF20FEF72AFA36
:1048F000BDE8F0812DE9F04104460D4616461F46FD
:10490000EE20FEF71FFA7720FEF71CFAE0B2FEF762
:1049100019FAE8B2FEF716FAF0B2FEF713FAF8B297
:10492000FEF710FAFF20FEF70DFAFC20FEF70AFA58
:10493000FF20FEF707FAFF20FEF704FABDE8F0813A
:1049400070B505460C46EE20FEF7FCF96820FEF730
:10495000F9F94FF6FF7000EA44012846FFF7A4FC7E
:10496000FF20FEF7EFF9FC20FEF7ECF9FF20FEF741
:10497000E9F9FF20FEF7E6F970BD70B505460C4673
:10498000EE20FEF7DFF96920FEF7DCF94FF6FF7045
:1049900000EA44012846FFF787FCFF20FEF7D2F922
:1049A000FC20FEF7CFF9FF20FEF7CCF9FF20FEF741
:1049B000C9F970BD70B504460D461646EE20FEF7E7
:1049C000C1F95220FEF7BEF9200AFEF7BBF9E0B2AA
:1049D000FEF7B8F9280AFEF7B5F9E8B2FEF7B2F922
:1049E000300AFEF7AFF9F0B2FEF7ACF9FF20FEF7A0
:1049F000A9F9FC20FEF7A6F9FF20FEF7A3F9FF2096
:104A0000FEF7A0F970BD70B504460D461646EE20BF
:104A1000FEF798F95320FEF795F9200AFEF792F970
:104A2000E0B2FEF78FF9280AFEF78CF9E8B2FEF73C
:104A300089F9300AFEF786F9F0B2FEF783F9FF2014
:104A4000FEF780F9FC20FEF77DF9FF20FEF77AF9EA
:104A5000FF20FEF777F970BD2DE9F04104460D46C1
:104A600016461F46DDF81880EE20FEF76BF967202A
:104A7000FEF768F9200AFEF765F9E0B2FEF762F981
:104A8000280AFEF75FF9E8B2FEF75CF9300AFEF794
:104A900059F9F0B2FEF756F9380AFEF753F9F8B2B1
:104AA000FEF750F94FEA1820FEF74CF908F0FF0026
:104AB000FEF748F9FF20FEF745F9FC20FEF742F922
:104AC000FF20FEF73FF9FF20FEF73CF9BDE8F0813B
:104AD0002DE9F04104460D4616461F46EE20FEF72E
:104AE00031F95420FEF72EF9200AFEF72BF9E0B237
:104AF000FEF728F9280AFEF725F9E8B2FEF722F9B1
:104B0000300AFEF71FF9F0B2FEF71CF9380AFEF77B
:104B100019F9F8B2FEF716F9FF20FEF713F9FC2099
:104B2000FEF710F9FF20FEF70DF9FF20FEF70AF956
:104B3000BDE8F0812DE9F04104460D4616461F46BA
:104B4000EE20FEF7FFF85520FEF7FCF8200AFEF7EE
:104B5000F9F8E0B2FEF7F6F8280AFEF7F3F8E8B243
:104B6000FEF7F0F8300AFEF7EDF8F0B2FEF7EAF8DB
:104B7000380AFEF7E7F8F8B2FEF7E4F8FF20FEF790
:104B8000E1F8FC20FEF7DEF8FF20FEF7DBF8FF205F
:104B9000FEF7D8F8BDE8F0812DE9F04104460D4656
:104BA00016461F46EE20FEF7CDF85620FEF7CAF84F
:104BB000200AFEF7C7F8E0B2FEF7C4F8280AFEF7AD
:104BC000C1F8E8B2FEF7BEF8300AFEF7BBF8F0B263
:104BD000FEF7B8F8380AFEF7B5F8F8B2FEF7B2F803
:104BE000FF20FEF7AFF8FC20FEF7ACF8FF20FEF741
:104BF000A9F8FF20FEF7A6F8BDE8F0812DE9F04105
:104C000004460D4616461F46EE20FEF79BF8572039
:104C1000FEF798F8200AFEF795F8E0B2FEF792F852
:104C2000280AFEF78FF8E8B2FEF78CF8300AFEF794
:104C300089F8F0B2FEF786F8380AFEF783F8F8B282
:104C4000FEF780F8FF20FEF77DF8FC20FEF77AF8EB
:104C5000FF20FEF777F8FF20FEF774F8BDE8F0813B
:104C600010B50446EE20FEF76DF86020FEF76AF8F6
:104C7000E0B2FEF767F8FF20FEF764F8FC20FEF7CD
:104C800061F8FF20FEF75EF8FF20FEF75BF810BD2D
:104C900010B50446EE20FEF755F86120FEF752F8F5
:104CA000E0B2FEF74FF8FF20FEF74CF8FC20FEF7CD
:104CB00049F8FF20FEF746F8FF20FEF743F810BD45
:104CC0002DE9F04104460D4616461F46EE20FEF73C
:104CD00039F86520FEF736F8200AFEF733F8E0B21F
:104CE000FEF730F8280AFEF72DF8E8B2FEF72AF8AA
:104CF000300AFEF727F8F0B2FEF724F8380AFEF77C
:104D000021F8F8B2FEF71EF8FF20FEF71BF8FC2092
:104D1000FEF718F8FF20FEF715F8FF20FEF712F84F
:104D2000BDE8F0812DE9F0410746884615461E464C
:104D300000240FB144F00104B8F1000F01D044F099
:104D4000020415B144EA8500C4B216B144EA461023
:104D5000C4B2EE20FDF7F6FF7020FDF7F3FFE0B2DE
:104D6000FDF7F0FFFF20FDF7EDFFFC20FDF7EAFF68
:104D7000FF20FDF7E7FFFF20FDF7E4FFBDE8F0812E
:104D800010B5EE20FDF7DEFF7220FDF7DBFFFF2000
:104D9000FDF7D8FFFC20FDF7D5FFFF20FDF7D2FF80
:104DA000FF20FDF7CFFF10BD10B5EE20FDF7CAFFC5
:104DB0007320FDF7C7FFFF20FDF7C4FFFC20FDF7C0
:104DC000C1FFFF20FDF7BEFFFF20FDF7BBFF10BDB9
:104DD00010B5EE20FDF7B6FF0920FDF7B3FFDE208A
:104DE000FDF7B0FFED20FDF7ADFF1320FDF7AAFFA3
:104DF0003120FDF7A7FFFF20FDF7A4FFFC20FDF702
:104E0000A1FFFF20FDF79EFFFF20FDF79BFF10BDD8
:104E100010B5EE20FDF796FF0820FDF793FFA520C3
:104E2000FDF790FF5A20FDF78DFF5F20FDF78AFF09
:104E3000F520FDF787FFFF20FDF784FFFC20FDF73D
:104E400081FFFF20FDF77EFFFF20FDF77BFF10BDF8
:104E500010B50446EE20FDF775FFA020FDF772FFA8
:104E6000E0B2FDF76FFFFF20FDF76CFFFC20FDF7C0
:104E700069FFFF20FDF766FFFF20FDF763FF10BD10
:104E800010B50446EE20FDF75DFFA120FDF75AFFA7
:104E9000E0B2FDF757FFFF20FDF754FFFC20FDF7C0
:104EA00051FFFF20FDF74EFFFF20FDF74BFF10BD28
:104EB00010B50446EE20FDF745FFA220FDF742FFA6
:104EC000E0B2FDF73FFFFF20FDF73CFFFC20FDF7C0
:104ED00039FFFF20FDF736FFFF20FDF733FF10BD40
:104EE00070B504460D46EE20FDF72CFFA420FDF71B
:104EF00029FFE0B2FDF726FFE8B2FDF723FFFF2010
:104F0000FDF720FFFC20FDF71DFFFF20FDF71AFF36
:104F1000FF20FDF717FF70BD10B50446EE20FDF72A
:104F200011FF0520FDF70EFFE0B2FDF70BFFFF209C
:104F3000FDF708FFFC20FDF705FFFF20FDF702FF4E
:104F4000FF20FDF7FFFE10BD2DE9F04705460E4698
:104F500017461C46DDE90889EE20FDF7F3FE8520A3
:104F6000FDF7F0FEE8B2FDF7EDFEF0B2FDF7EAFE68
:104F7000F8B2FDF7E7FE200AFDF7E4FEE0B2FDF728
:104F8000E1FE4FEA1820FDF7DDFE08F0FF00FDF717
:104F9000D9FE4FEA1920FDF7D5FE09F0FF00FDF715
:104FA000D1FEFF20FDF7CEFEFC20FDF7CBFEFF205B
:104FB000FDF7C8FEFF20FDF7C5FEBDE8F08770B520
:104FC00004460E461546EE20FDF7BCFE8720FDF791
:104FD000B9FE200EFDF7B6FEC4F30740FDF7B2FEA2
:104FE000C4F30720FDF7AEFEE0B2FDF7ABFE31469D
:104FF0002846FFF74CF9FF20FDF7A4FEFC20FDF743
:10500000A1FEFF20FDF79EFEFF20FDF79BFE70BD79
:1050100070B504460D46EE20FDF794FE8820FDF79E
:1050200091FE200EFDF78EFEC4F30740FDF78AFEC9
:10503000C4F30720FDF786FEE0B2FDF783FE280AE1
:10504000FDF780FEE8B2FDF77DFEFF20FDF77AFE5A
:10505000FC20FDF777FEFF20FDF774FEFF20FDF733
:1050600071FE70BD10B5EE20FDF76CFEB120FDF7AE
:1050700069FE0120FDF766FEFF20FDF763FEFC20C0
:10508000FDF760FEFF20FDF75DFEFF20FDF75AFEF5
:1050900010BD10B50446EE20FDF754FEB120FDF71B
:1050A00051FE0020FDF74EFE200AFDF74BFEE0B258
:1050B000FDF748FEFF20FDF745FEFC20FDF742FE10
:1050C000FF20FDF73FFEFF20FDF73CFE10BD10B5B1
:1050D0000446EE20FDF736FEB320FDF733FEE0B2C6
:1050E000FDF730FEFF20FDF72DFEFC20FDF72AFE28
:1050F000FF20FDF727FEFF20FDF724FE10BD70B551
:1051000004460D461646EE20FDF71CFEB120FDF7C5
:1051100019FE0220FDF716FE200AFDF713FEE0B28D
:10512000FDF710FE280AFDF70DFEE8B2FDF70AFEB6
:10513000F0B2FDF707FEFF20FDF704FEFC20FDF7AF
:1051400001FEFF20FDF7FEFDFF20FDF7FBFD70BD1A
:1051500070B504460D461646EE20FDF7F3FDB1206E
:10516000FDF7F0FD0320FDF7EDFD200AFDF7EAFD58
:10517000E0B2FDF7E7FD280AFDF7E4FDE8B2FDF730
:10518000E1FDF0B2FDF7DEFDFF20FDF7DBFDFC20C9
:10519000FDF7D8FDFF20FDF7D5FDFF20FDF7D2FD7F
:1051A00070BD70B504460D461646EE20FDF7CAFDEB
:1051B000B120FDF7C7FD0420FDF7C4FD200AFDF76F
:1051C000C1FDE0B2FDF7BEFD280AFDF7BBFDE8B268
:1051D000FDF7B8FDF0B2FDF7B5FDFF20FDF7B2FD1C
:1051E000FC20FDF7AFFDFF20FDF7ACFDFF20FDF734
:1051F000A9FD70BD70B504460D461646EE20FDF7BC
:10520000A1FDB120FDF79EFD1020FDF79BFD200ABA
:10521000FDF798FDE0B2FDF795FD280AFDF792FD38
:10522000E8B2FDF78FFDF0B2FDF78CFDFF20FDF732
:1052300089FDFC20FDF786FDFF20FDF783FDFF20A3
:10524000FDF780FD70BD70B504460D461646EE2094
:10525000FDF778FDB120FDF775FD1020FDF772FD1B
:10526000200AFDF76FFDE0B2FDF76CFD280AFDF79F
:1052700069FDE8B2FDF766FD3046FEF7FDFFFF2051
:10528000FDF760FDFC20FDF75DFDFF20FDF75AFDF9
:10529000FF20FDF757FD70BD70B505460E4614465C
:1052A000EE20FDF74FFDB120FDF74CFD1020FDF77E
:1052B00049FD280AFDF746FDE8B2FDF743FD300A37
:1052C000FDF740FDF0B2FDF73DFD200EFDF73AFD84
:1052D000C4F30740FDF736FDC4F30720FDF732FDA8
:1052E000E0B2FDF72FFDFF20FDF72CFDFC20FDF7C0
:1052F00029FDFF20FDF726FDFF20FDF723FD70BDF2
:1053000070B505460E461446EE20FDF71BFDB12094
:10531000FDF718FD1020FDF715FD280AFDF712FD19
:10532000E8B2FDF70FFD300AFDF70CFDF0B2FDF716
:1053300009FD200EFDF706FDC4F30740FDF702FD51
:10534000C4F30720FDF7FEFCE0B2FDF7FBFCFF20F5
:10535000FDF7F8FCFC20FDF7F5FCFF20FDF7F2FC63
:10536000FF20FDF7EFFC70BD70B505460E461446F4
:10537000EE20FDF7E7FCB120FDF7E4FC1020FDF77F
:10538000E1FC280AFDF7DEFCE8B2FDF7DBFC300AA1
:10539000FDF7D8FCF0B2FDF7D5FC200EFDF7D2FCEE
:1053A000C4F30740FDF7CEFCC4F30720FDF7CAFCA9
:1053B000E0B2FDF7C7FCFF20FDF7C4FCFC20FDF7C1
:1053C000C1FCFF20FDF7BEFCFF20FDF7BBFC70BD5C
:1053D00070B504460D461646EE20FDF7B3FCB1202D
:1053E000FDF7B0FC1020FDF7ADFC200AFDF7AAFC8C
:1053F000E0B2FDF7A7FC280AFDF7A4FCE8B2FDF730
:10540000A1FCF0B2FDF79EFCFF20FDF79BFCFC2009
:10541000FDF798FCFF20FDF795FCFF20FDF792FCBF
:1054200070BD70B504460D46EE20FDF78BFCB12033
:10543000FDF788FC1120FDF785FC200AFDF782FCB2
:10544000E0B2FDF77FFC280AFDF77CFCE8B2FDF72F
:1054500079FCFF20FDF776FCFC20FDF773FCFF20B4
:10546000FDF770FCFF20FDF76DFC70BD70B50446C4
:105470000D46EE20FDF766FCB120FDF763FC202011
:10548000FDF760FC200AFDF75DFCE0B2FDF75AFC79
:10549000280AFDF757FCE8B2FDF754FCFF20FDF7A2
:1054A00051FCFC20FDF74EFCFF20FDF74BFCFF20DC
:1054B000FDF748FC70BD70B504460D46EE20FDF7C3
:1054C00041FCB120FDF73EFC2120FDF73BFC200A0A
:1054D000FDF738FCE0B2FDF735FC280AFDF732FC99
:1054E000E8B2FDF72FFCFF20FDF72CFCFC20FDF7B8
:1054F00029FCFF20FDF726FCFF20FDF723FC70BDF3
:1055000070B504460D46EE20FDF71CFCB120FDF7FA
:1055100019FC2220FDF716FC200AFDF713FCE0B26F
:10552000FDF710FC280AFDF70DFCE8B2FDF70AFCB8
:10553000FF20FDF707FCFC20FDF704FCFF20FDF732
:1055400001FCFF20FDF7FEFB70BD70B504460D4663
:105550001646EE20FDF7F6FBB120FDF7F3FB232006
:10556000FDF7F0FB200AFDF7EDFBE0B2FDF7EAFBEB
:10557000280AFDF7E7FBE8B2FDF7E4FBF0B2FDF720
:10558000E1FBFF20FDF7DEFBFC20FDF7DBFBFF204E
:10559000FDF7D8FBFF20FDF7D5FB70BD70B50446C5
:1055A0000D46EE20FDF7CEFBB120FDF7CBFB24200E
:1055B000FDF7C8FB200AFDF7C5FBE0B2FDF7C2FB13
:1055C000280AFDF7BFFBE8B2FDF7BCFBFF20FDF7A3
:1055D000B9FBFC20FDF7B6FBFF20FDF7B3FBFF2076
:1055E000FDF7B0FB70BD70B504460D46EE20FDF72B
:1055F000A9FBB120FDF7A6FB2520FDF7A3FB200AA0
:10560000FDF7A0FBE0B2FDF79DFB280AFDF79AFB32
:10561000E8B2FDF797FBFF20FDF794FBFC20FDF7B8
:1056200091FBFF20FDF78EFBFF20FDF78BFB70BD8C
:105630002DE9F04104460D4617461E46EE20FDF7C3
:1056400081FBB120FDF77EFB3020FDF77BFB200ABC
:10565000FDF778FBE0B2FDF775FB280AFDF772FB5A
:10566000E8B2FDF76FFBF8B2FDF76CFB300AFDF70F
:1056700069FBF0B2FDF766FBFF20FDF763FBFC2042
:10568000FDF760FBFF20FDF75DFBFF20FDF75AFBF8
:10569000BDE8F08170B504460D461646EE20FDF7D4
:1056A00051FBB120FDF74EFB3120FDF74BFB200AEB
:1056B000FDF748FBE0B2FDF745FB280AFDF742FB8A
:1056C000E8B2FDF73FFBF0B2FDF73CFBFF20FDF732
:1056D00039FBFC20FDF736FBFF20FDF733FBFF20F5
:1056E000FDF730FB70BD2DE9F04104460D4617462D
:1056F0009846069EEE20FDF725FBB120FDF722FB24
:105700003220FDF71FFB200AFDF71CFBE0B2FDF77E
:1057100019FB280AFDF716FBE8B2FDF713FBF8B2F8
:10572000FDF710FB300AFDF70DFBF0B2FDF70AFBA9
:1057300031464046FEF7ABFDFF20FDF703FBFC20A2
:10574000FDF700FBFF20FDF7FDFAFF20FDF7FAFA59
:10575000BDE8F08170B504460D461646EE20FDF713
:10576000F1FAB120FDF7EEFA3320FDF7EBFA200A4B
:10577000FDF7E8FAE0B2FDF7E5FA280AFDF7E2FAEC
:10578000E8B2FDF7DFFAF0B2FDF7DCFAFF20FDF733
:10579000D9FAFC20FDF7D6FAFF20FDF7D3FAFF2057
:1057A000FDF7D0FA70BD2DE9F04704460D461646C8
:1057B0001F46DDE90889EE20FDF7C4FAB120FDF7A8
:1057C000C1FA3420FDF7BEFA200AFDF7BBFAE0B2B9
:1057D000FDF7B8FA280AFDF7B5FAE8B2FDF7B2FA14
:1057E000300AFDF7AFFAF0B2FDF7ACFA380AFDF770
:1057F000A9FAF8B2FDF7A6FA4FEA1820FDF7A2FAC7
:1058000008F0FF00FDF79EFA4FEA1920FDF79AFA1B
:1058100009F0FF00FDF796FAFF20FDF793FAFC2050
:10582000FDF790FAFF20FDF78DFAFF20FDF78AFAC9
:10583000BDE8F08710B50446EE20FDF783FAB120ED
:10584000FDF780FA1220FDF77DFA200AFDF77AFABB
:10585000E0B2FDF777FA10BD70B504460D46200A98
:10586000FDF770FAE0B2FDF76DFA0020FDF76AFA75
:105870000120FDF767FAE8B2FDF764FA70BD70B574
:1058800005460C46280AFDF75DFAE8B2FDF75AFA1C
:105890000020FDF757FA0420FDF754FA200EFDF71B
:1058A00051FAC4F30740FDF74DFAC4F30720FDF7A2
:1058B00049FAE0B2FDF746FA70BD70B505460C46F0
:1058C000280AFDF73FFAE8B2FDF73CFA0020FDF7A1
:1058D00039FA0420FDF736FA200EFDF733FAC4F347
:1058E0000740FDF72FFAC4F30720FDF72BFAE0B2CB
:1058F000FDF728FA70BD70B505460C46280AFDF77D
:1059000021FAE8B2FDF71EFA0020FDF71BFA042089
:10591000FDF718FA200EFDF715FAC4F30740FDF75E
:1059200011FAC4F30720FDF70DFAE0B2FDF70AFA09
:1059300070BD01460A4600E0491C08780028FBD1EA
:10594000881A704770B504460D46200AFDF7FAF92B
:10595000E0B2FDF7F7F92846FFF7EBFFC0F30726A3
:105960003046FDF7EFF92846FFF7E3FFC6B23046B1
:10597000FDF7E8F92846FEF77FFC70BD70B50446D8
:105980000D46200AFDF7DEF9E0B2FDF7DBF9002055
:10599000FDF7D8F90220FDF7D5F9280AFDF7D2F96D
:1059A000E8B2FDF7CFF970BD10B5FF20FDF7CAF9D9
:1059B000FC20FDF7C7F9FF20FDF7C4F9FF20FDF734
:1059C000C1F910BD70B505460E461446EE20FDF730
:1059D000B9F9B120FDF7B6F94020FDF7B3F9280A6F
:1059E000FDF7B0F9E8B2FDF7ADF9300AFDF7AAF915
:1059F000F0B2FDF7A7F9200EFDF7A4F9C4F30740B4
:105A0000FDF7A0F9C4F30720FDF79CF9E0B2FDF71C
:105A100099F9FF20FDF796F9FC20FDF793F9FF2097
:105A2000FDF790F9FF20FDF78DF970BD70B50446C4
:105A30000D46EE20FDF786F9B120FDF783F94120F0
:105A4000FDF780F9200AFDF77DF9E0B2FDF77AF95C
:105A5000280AFDF777F9E8B2FDF774F9FF20FDF7A2
:105A600071F9FC20FDF76EF9FF20FDF76BF9FF20BF
:105A7000FDF768F970BD70B504460D46EE20FDF7E0
:105A800061F9B120FDF75EF94220FDF75BF9200ACC
:105A9000FDF758F9E0B2FDF755F9280AFDF752F97C
:105AA000E8B2FDF74FF9FF20FDF74CF9FC20FDF7B8
:105AB00049F9FF20FDF746F9FF20FDF743F970BDD6
:105AC00070B504460D46EE20FDF73CF9B120FDF718
:105AD00039F94420FDF736F9200AFDF733F9E0B231
